:020000040800F2
:1000000000500020E5050008650500086D050008A2
:10001000750500087D050008850500080000000042
:100020000000000000000000000000008D05000836
:100030009905000800000000A5050008B1050008AA
:100040002D0600082D0600082D0600082D060008C4
:100050002D0600082D0600082D060008BD05000825
:10006000CB0500082D0600082D0600082D06000807
:100070002D0600082D0600082D0600082D06000894
:100080002D0600082D0600082D0600082D06000884
:100090002D0600082D0600082D0600082D06000874
:1000A0002D0600082D0600082D0600082D06000864
:1000B0002D0600082D0600082D0600082D06000854
:1000C0002D0600082D0600082D0600082D06000844
:1000D0002D0600082D0600082D0600082D06000834
:1000E0002D0600082D0600082D060008000000005F
:1000F0000000000000000000000000000000000000
:0C01000000000000000000005FF808F1A3
:10010C0010B5054C237833B9044B13B10448AFF345
:10011C0000800123237010BD10000020000000009F
:10012C00041E000808B5034B1BB103490348AFF389
:10013C00008008BD0000000014000020041E000810
:10014C0080B500AF00F06EFA00F01CF800F056F825
:10015C00002001F093FB0A4B1B78022B0BD0022BD7
:10016C00F9DC002B04D0012BF5D100F06BF905E084
:10017C0000F08EF902E000F0ABF900BFEBE700BF36
:10018C000000002080B590B000AF07F118032822C2
:10019C000021184601F004FE3B1D00221A605A6033
:1001AC009A60DA601A610223BB610123BB621023DF
:1001BC00FB6200237B6307F11803184600F07AFDFD
:1001CC000346002B01D000F08FF90F237B60002336
:1001DC00BB600023FB6000233B6100237B613B1D64
:1001EC000021184600F0E8FF0346002B01D000F078
:1001FC007BF900BF4037BD4680BD000080B588B09C
:10020C0000AF07F1100300221A605A609A60DA609E
:10021C00354B9B69344A43F020039361324B9B6905
:10022C0003F02003FB60FB682F4B9B692E4A43F0C5
:10023C00040393612C4B9B6903F00403BB60BB6804
:10024C00294B9B69284A43F008039361264B9B6911
:10025C0003F008037B607B680022B821234800F080
:10026C00F9FC002240F60741214800F0F3FC06237C
:10027C003B61204B7B610223BB6107F110031946E4
:10028C001A4800F063FBB8233B6101237B61002318
:10029C00BB610223FB6107F110031946134800F000
:1002AC0055FB40F607433B6101237B610023BB6197
:1002BC000223FB6107F1100319460D4800F046FBC1
:1002CC0000220021072000F00AFB072000F023FB8E
:1002DC0000220121082000F002FB082000F01BFB8B
:1002EC0000BF2037BD4680BD001002400008014011
:1002FC00000C01400000111080B582B000AF034625
:10030C00FB80002001F03AFAFB88022B02D0042B70
:10031C0010D023E0134B1B78012B03D0114B1B780F
:10032C00022B03D10F4B00221A7017E00D4B012248
:10033C001A7013E00B4B1B78012B03D1094B0222D3
:10034C001A700AE0074B1B78022B03D1054B0122D4
:10035C001A7002E0034B00221A7000BF00BF08376E
:10036C00BD4680BD0000002080B582B000AF786033
:10037C00002001F003FA01220121002001F03EFAD5
:10038C000C49002001F0ECFC01220221002001F0BC
:10039C0035FA0949002001F0E3FC09220221002072
:1003AC0001F02CFA7968002001F0DAFC00BF083764
:1003BC00BD4680BD1C1E00082C1E000880B584B0F4
:1003CC0000AF78607B68FB600AE0012000F08CF9DC
:1003DC00084B1B78012B03D0074B00221A7005E049
:1003EC00FB685A1EFA60002BEFD100BF00BF10371C
:1003FC00BD4680BD000000200100002080B584B007
:10040C0000AFB9607B600346FB731346BB81FB7B7B
:10041C00012B12D1BB8901221946B86800F01AFCD5
:10042C007868FFF7A1FF4FF4FA60FFF7C7FFBB89AD
:10043C0000221946B86800F00DFC00BF1037BD460D
:10044C0080BD000080B500AF0C4B01221A700B4B25
:10045C0018780B4B08220B49FFF7D0FF074B187885
:10046C00094B10220749FFF7C9FF044B1878074BBB
:10047C0020220449FFF7C2FF00BF80BD010000200D
:10048C00381E0008000801403C1E0008441E0008ED
:10049C0080B500AF01220121002001F0AFF90A491B
:1004AC00002001F05DFC00220821084800F0D2FB7E
:1004BC0000221021054800F0CDFB0022202103482A
:1004CC0000F0C8FB00BF80BD4C1E000800080140B6
:1004DC0080B500AF01220821024800F0BBFB00BF31
:1004EC0080BD00BF0008014080B400AF72B600BFF1
:1004FC0000BFFDE780B485B000AF154B9B69144A73
:10050C0043F001039361124B9B6903F00103BB6041
:10051C00BB680F4BDB690E4A43F08053D3610C4B25
:10052C00DB6903F080537B607B680A4B5B68FB6084
:10053C00FB6823F0E063FB60FB6843F08063FB60C7
:10054C00044AFB68536000BF1437BD4680BC70473B
:10055C00001002400000014080B400AF00BFFDE776
:10056C0080B400AF00BFFDE780B400AF00BFFDE773
:10057C0080B400AF00BFFDE780B400AF00BFFDE763
:10058C0080B400AF00BFBD4680BC704780B400AFE4
:10059C0000BFBD4680BC704780B400AF00BFBD46F5
:1005AC0080BC704780B500AF00F082F800BF80BD02
:1005BC0080B500AF022000F065FB00BF80BD80B5A8
:1005CC0000AF042000F05EFB00BF80BD80B400AF24
:1005DC0000BFBD4680BC7047FFF7F8FF0B480C49C5
:1005EC000C4A002302E0D458C4500433C4188C4283
:1005FC00F9D3094A094C002301E013600432A242EA
:10060C00FBD301F0D5FBFFF79BFD704700000020EA
:10061C0010000020BC1E000810000020300000203C
:10062C00FEE7000080B500AF084B1B68074A43F09B
:10063C0010031360032000F047F90F2000F008F8B6
:10064C00FFF758FF0023184680BD00BF0020024072
:10065C0080B582B000AF7860124B1A68124B1B78D1
:10066C0019464FF47A73B3FBF1F3B2FBF3F318466C
:10067C0000F05FF90346002B01D001230EE07B68EC
:10068C000F2B0AD8002279684FF0FF3000F027F9C1
:10069C00064A7B681360002300E0012318460837E4
:1006AC00BD4680BD040000200C0000200800002086
:1006BC0080B400AF054B1B781A46054B1B681344DE
:1006CC00034A136000BFBD4680BC70470C0000207D
:1006DC002C00002080B400AF024B1B681846BD46AE
:1006EC0080BC70472C00002080B584B000AF7860CF
:1006FC00FFF7F0FFB8607B68FB60FB68B3F1FF3F6E
:10070C0005D00A4B1B781A46FB681344FB6000BFEC
:10071C00FFF7E0FF0246BB68D31AFA689A42F7D893
:10072C0000BF00BF1037BD4680BD00BF0C000020CD
:10073C0080B485B000AF78607B6803F00703FB6082
:10074C000C4BDB68BB60BA684FF6FF031340BB6011
:10075C00FB681A02BB68134343F0BF6343F40033D6
:10076C00BB60044ABB68D36000BF1437BD4680BC75
:10077C00704700BF00ED00E080B400AF044BDB68B5
:10078C001B0A03F007031846BD4680BC704700BF28
:10079C0000ED00E080B483B000AF0346FB7197F925
:1007AC000730002B0BDBFB7903F01F02064997F98E
:1007BC0007305B09012000FA02F241F8232000BF48
:1007CC000C37BD4680BC704700E100E080B483B0BC
:1007DC0000AF03463960FB7197F90730002B0ADB39
:1007EC003B68DAB20C4997F907301201D2B20B44CC
:1007FC0083F800230AE03B68DAB20849FB7903F07E
:10080C000F03043B1201D2B20B441A7600BF0C3713
:10081C00BD4680BC704700BF00E100E000ED00E089
:10082C0080B489B000AFF860B9607A60FB6803F0FF
:10083C000703FB61FB69C3F10703042B28BF0423E7
:10084C00BB61FB690433062B02D9FB69033B00E057
:10085C0000237B614FF0FF32BB6902FA03F3DA43EA
:10086C00BB681A407B699A404FF0FF317B6901FAF3
:10087C0003F3D9437B680B40134318462437BD461A
:10088C0080BC704780B582B000AF78607B68013B5C
:10089C00B3F1807F01D301230FE00A4A7B68013B4F
:1008AC0053600F214FF0FF30FFF790FF054B0022F4
:1008BC009A60044B07221A60002318460837BD467D
:1008CC0080BD00BF10E000E080B582B000AF786062
:1008DC007868FFF72DFF00BF0837BD4680BD80B597
:1008EC0086B000AF0346B9607A60FB7300237B616E
:1008FC00FFF742FF78617A68B9687869FFF790FF73
:10090C00024697F90F3011461846FFF75FFF00BFFC
:10091C001837BD4680BD80B582B000AF0346FB7171
:10092C0097F907301846FFF735FF00BF0837BD466B
:10093C0080BD80B582B000AF78607868FFF7A2FF09
:10094C00034618460837BD4680BD000080B48BB006
:10095C0000AF7860396000237B6200233B6269E161
:10096C0001227B6A02FA03F3FB613B681B68FA699C
:10097C001340BB61BA69FB699A4240F058813B68ED
:10098C005B689A4A93425ED0984A934275D8984ACB
:10099C00934258D0964A93426FD8964A934252D07B
:1009AC00944A934269D8944A93424CD0924A9342C7
:1009BC0063D8924A934246D0904A93425DD8122B08
:1009CC002AD8122B59D801A252F823F0530A000846
:1009DC002D0A00083F0A0008810A0008870A00084F
:1009EC00870A0008870A0008870A0008870A000897
:1009FC00870A0008870A0008870A0008870A000887
:100A0C00870A0008870A0008870A0008870A000876
:100A1C00350A0008490A0008794A934213D02CE0A1
:100A2C003B68DB683B6229E03B68DB6804333B6274
:100A3C0024E03B68DB6808333B621FE03B68DB6803
:100A4C000C333B621AE03B689B68002B02D10423F9
:100A5C003B6213E03B689B68012B05D108233B628A
:100A6C007B68FA691A6109E008233B627B68FA69C2
:100A7C005A6103E000233B6200E000BFBB69FF2B1F
:100A8C0001D87B6801E07B6804337B61BB69FF2B79
:100A9C0002D87B6A9B0002E07B6A083B9B003B61AF
:100AAC007B691A680F213B6901FA03F3DB431A4097
:100ABC00396A3B6901FA03F31A437B691A603B6894
:100ACC005B6803F08053002B00F0B1804D4B9B69A9
:100ADC004C4A43F0010393614A4B9B6903F00103B9
:100AEC00BB60BB68484A7B6A9B08023352F82330D0
:100AFC00FB607B6A03F003039B000F2202FA03F3F3
:100B0C00DB43FA681340FB607B68404A934213D086
:100B1C007B683F4A93420DD07B683E4A934207D094
:100B2C007B683D4A934201D1032306E0042304E091
:100B3C00022302E0012300E000237A6A02F00302A0
:100B4C0092009340FA681343FB602F497B6A9B0821
:100B5C000233FA6841F823203B685B6803F4801386
:100B6C00002B06D02D4B9A682C49BB6913438B6024
:100B7C0006E02A4B9A68BB69DB43284913408B601B
:100B8C003B685B6803F40013002B06D0234BDA6838
:100B9C002249BB691343CB6006E0204BDA68BB6982
:100BAC00DB431E491340CB603B685B6803F40033A6
:100BBC00002B06D0194B5A681849BB6913434B607C
:100BCC0006E0164B5A68BB69DB43144913404B6073
:100BDC003B685B6803F48033002B21D00F4B1A6801
:100BEC000E49BB6913430B6021E000BF00003210BB
:100BFC000000311000002210000021100000121023
:100C0C0000001110001002400000014000080140DB
:100C1C00000C014000100140001401400004014090
:100C2C000B4B1A68BB69DB43094913400B607B6AA9
:100C3C0001337B623B681A687B6A22FA03F3002B50
:100C4C007FF48EAE00BF00BF2C37BD4680BC704712
:100C5C000004014080B483B000AF78600B467B8009
:100C6C0013467B707B78002B03D07A887B681A61E3
:100C7C0003E07B881A047B681A6100BF0C37BD4601
:100C8C0080BC704780B582B000AF0346FB80084B38
:100C9C005A69FB881340002B06D0054AFB88536128
:100CAC00FB881846FFF728FB00BF0837BD4680BD00
:100CBC000004014080B586B000AF78607B68002BE3
:100CCC0001D1012372E27B681B6803F00103002B46
:100CDC0000F08780924B5B6803F00C03042B0CD064
:100CEC008F4B5B6803F00C03082B12D18C4B5B68A9
:100CFC0003F48033B3F5803F0BD1894B1B6803F4AD
:100D0C000033002B6CD07B685B68002B68D101230F
:100D1C004CE27B685B68B3F5803F06D1804B1B6867
:100D2C007F4A43F4803313602EE07B685B68002BB2
:100D3C000CD17B4B1B687A4A23F480331360784BBD
:100D4C001B68774A23F4802313601DE07B685B6883
:100D5C00B3F5A02F0CD1724B1B68714A43F480235E
:100D6C0013606F4B1B686E4A43F4803313600BE0C7
:100D7C006B4B1B686A4A23F480331360684B1B6807
:100D8C00674A23F4802313607B685B68002B13D0C5
:100D9C00FFF7A0FC386108E0FFF79CFC02463B69BA
:100DAC00D31A642B01D9032300E25D4B1B6803F4B7
:100DBC000033002BF0D014E0FFF78CFC386108E016
:100DCC00FFF788FC02463B69D31A642B01D9032335
:100DDC00ECE1534B1B6803F40033002BF0D100E023
:100DEC0000BF7B681B6803F00203002B63D04C4BE5
:100DFC005B6803F00C03002B0BD0494B5B6803F0D2
:100E0C000C03082B1CD1464B5B6803F48033002B7E
:100E1C0016D1434B1B6803F00203002B05D07B68F3
:100E2C001B69012B01D00123C0E13D4B1B6823F052
:100E3C00F8027B685B69DB00394913430B603AE0CD
:100E4C007B681B69002B20D0364B01221A60FFF700
:100E5C0041FC386108E0FFF73DFC02463B69D31AC0
:100E6C00022B01D90323A1E12D4B1B6803F00203D4
:100E7C00002BF0D02A4B1B6823F0F8027B685B69CF
:100E8C00DB00274913430B6015E0264B00221A6048
:100E9C00FFF720FC386108E0FFF71CFC02463B69B9
:100EAC00D31A022B01D9032380E11D4B1B6803F0DD
:100EBC000203002BF0D17B681B6803F00803002BA6
:100ECC003AD07B689B69002B19D0174B01221A6012
:100EDC00FFF700FC386108E0FFF7FCFB02463B69BA
:100EEC00D31A022B01D9032360E10D4B5B6A03F08B
:100EFC000203002BF0D0012000F09CFA1CE00A4BFE
:100F0C0000221A60FFF7E6FB38610FE0FFF7E2FB07
:100F1C0002463B69D31A022B08D9032346E100BFD2
:100F2C00001002400000424280044242924B5B6A35
:100F3C0003F00203002BE9D17B681B6803F0040368
:100F4C00002B00F0A6800023FB758B4BDB6903F0B4
:100F5C008053002B0DD1884BDB69874A43F08053BB
:100F6C00D361854BDB6903F08053BB60BB68012305
:100F7C00FB75824B1B6803F48073002B18D17F4BDD
:100F8C001B687E4A43F480731360FFF7A3FB386140
:100F9C0008E0FFF79FFB02463B69D31A642B01D98B
:100FAC00032303E1754B1B6803F48073002BF0D013
:100FBC007B68DB68012B06D16F4B1B6A6E4A43F0D2
:100FCC00010313622DE07B68DB68002B0CD16A4BAC
:100FDC001B6A694A23F001031362674B1B6A664A5A
:100FEC0023F0040313621CE07B68DB68052B0CD137
:100FFC00614B1B6A604A43F0040313625E4B1B6A2D
:10100C005D4A43F0010313620BE05B4B1B6A5A4AC7
:10101C0023F001031362584B1B6A574A23F0040355
:10102C0013627B68DB68002B15D0FFF753FB38612C
:10103C000AE0FFF74FFB02463B69D31A41F28832B4
:10104C00934201D90323B1E04B4B1B6A03F002031B
:10105C00002BEED014E0FFF73DFB38610AE0FFF700
:10106C0039FB02463B69D31A41F28832934201D9CB
:10107C0003239BE0404B1B6A03F00203002BEED1D1
:10108C00FB7D012B05D13C4BDB693B4A23F08053A4
:10109C00D3617B68DB69002B00F08780364B5B6883
:1010AC0003F00C03082B61D07B68DB69022B46D163
:1010BC00334B00221A60FFF70DFB386108E0FFF795
:1010CC0009FB02463B69D31A022B01D903236DE0BD
:1010DC00294B1B6803F00073002BF0D17B681B6A53
:1010EC00B3F5803F08D1244B5B6823F400327B6856
:1010FC009B68214913434B601F4B5B6823F47412AC
:10110C007B68196A7B685B6A0B431B4913434B6012
:10111C001B4B01221A60FFF7DDFA386108E0FFF77C
:10112C00D9FA02463B69D31A022B01D903233DE0BD
:10113C00114B1B6803F00073002BF0D035E0104B03
:10114C0000221A60FFF7C6FA386108E0FFF7C2FA0E
:10115C0002463B69D31A022B01D9032326E0064B26
:10116C001B6803F00073002BF0D11EE07B68DB6979
:10117C00012B07D1012319E0001002400070004040
:10118C00600042420B4B5B68FB60FB6803F48032EF
:10119C007B681B6A9A4206D1FB6803F470127B6869
:1011AC005B6A9A4201D0012300E0002318461837ED
:1011BC00BD4680BD0010024080B584B000AF7860A1
:1011CC0039607B68002B01D10123D0E06A4B1B688E
:1011DC0003F007033A689A4210D9674B1B6823F057
:1011EC00070265493B6813430B60634B1B6803F0B4
:1011FC0007033A689A4201D00123B8E07B681B6868
:10120C0003F00203002B20D07B681B6803F004035F
:10121C00002B05D0594B5B68584A43F4E06353608C
:10122C007B681B6803F00803002B05D0534B5B68ED
:10123C00524A43F460535360504B5B6823F0F00206
:10124C007B689B684D4913434B607B681B6803F0BC
:10125C000103002B40D07B685B68012B07D1474B07
:10126C001B6803F40033002B15D101237FE07B684E
:10127C005B68022B07D1414B1B6803F00073002BFA
:10128C0009D1012373E03D4B1B6803F00203002BD3
:10129C0001D101236BE0394B5B6823F003027B68BF
:1012AC005B68364913434B60FFF714FAF8600AE0A9
:1012BC00FFF710FA0246FB68D31A41F288329342C8
:1012CC0001D9032353E02D4B5B6803F00C027B68C0
:1012DC005B689B009A42EBD1274B1B6803F007031A
:1012EC003A689A4210D2244B1B6823F00702224919
:1012FC003B6813430B60204B1B6803F007033A68F1
:10130C009A4201D0012332E07B681B6803F004038E
:10131C00002B08D0194B5B6823F4E0627B68DB6818
:10132C00164913434B607B681B6803F00803002BC2
:10133C0009D0124B5B6823F460527B681B69DB009D
:10134C000E4913434B6000F021F802460B4B5B68CF
:10135C001B0903F00F030A49CB5C22FA03F3094A79
:10136C001360094B1B681846FFF772F900231846E7
:10137C001037BD4680BD00BF002002400010024067
:10138C005C1E0008040000200800002080B487B018
:10139C0000AF0023FB600023BB6000237B610023B4
:1013AC007B6000233B611E4B5B68FB60FB6803F0BA
:1013BC000C03042B02D0082B03D027E0194B3B6104
:1013CC0027E0FB689B0C03F00F03174AD35C7B6090
:1013DC00FB6803F48033002B10D0114B5B685B0C63
:1013EC0003F00103114AD35CBB607B680D4A03FB1D
:1013FC0002F2BB68B2FBF3F37B6104E07B680C4A3E
:10140C0002FB03F37B617B693B6102E0054B3B61B3
:10141C0000BF3B6918461C37BD4680BC704700BFF7
:10142C000010024000127A006C1E00087C1E00089E
:10143C0000093D0080B485B000AF78600A4B1B6892
:10144C000A4AA2FB03235B0A7A6802FB03F3FB60E4
:10145C0000BFFB685A1EFA60002BF9D100BF00BF19
:10146C001437BD4680BC704704000020D34D621079
:10147C0080B582B000AF03460A46FB711346BB71C0
:10148C00BB7903F00103002B14D0FB795A4A3421A9
:10149C0001FB03F3134404331868FB79564A3421D7
:1014AC0001FB03F3134408331B8801221946FFF791
:1014BC00D1FB13E0FB79504A342101FB03F31344B5
:1014CC0004331868FB794C4A342101FB03F31344B1
:1014DC0008331B8800221946FFF7BCFBBB7903F0CD
:1014EC000203002B14D0FB79434A342101FB03F394
:1014FC0013440C331868FB793F4A342101FB03F386
:10150C00134410331B8801221946FFF7A3FB13E089
:10151C00FB79394A342101FB03F313440C3318686B
:10152C00FB79354A342101FB03F3134410331B8838
:10153C0000221946FFF78EFBBB7903F00403002B46
:10154C0014D0FB792C4A342101FB03F313441433DC
:10155C001868FB79284A342101FB03F31344183330
:10156C001B8801221946FFF775FB13E0FB79224A11
:10157C00342101FB03F3134414331868FB791E4A1E
:10158C00342101FB03F3134418331B880022194642
:10159C00FFF760FBBB7903F00803002B14D0FB7939
:1015AC00154A342101FB03F313441C331868FB79EF
:1015BC00114A342101FB03F3134420331B8801220D
:1015CC001946FFF747FB13E0FB790B4A342101FB6B
:1015DC0003F313441C331868FB79074A342101FBCD
:1015EC0003F3134420331B8800221946FFF732FB08
:1015FC0000BF0837BD4680BD801E000880B588B08E
:10160C0000AF03460A46FB711346BB71FB79574A80
:10161C00342101FB03F313442C331868FB79534A30
:10162C00342101FB03F3134430331B880022194689
:10163C00FFF710FBBA79FB7911461846FFF718FF34
:10164C00FB794A4A342101FB03F313442433186811
:10165C00FB79464A342101FB03F3134428331B88DE
:10166C0000221946FFF7F6FA414B9B68FB61414B90
:10167C001B68414AA2FB03239A0C13469B001A4495
:10168C003C4B1B683C49A1FB03139B0C5B08D31A16
:10169C00BB61374B9B68FA69D31ABA699A42F8D87E
:1016AC00FB79324A342101FB03F3134424331868C9
:1016BC00FB792E4A342101FB03F3134428331B8896
:1016CC0001221946FFF7C6FA294B9B687B61294B0F
:1016DC001B68294AA2FB03239A0C13469B001A444D
:1016EC00244B1B682449A1FB03139B0C5B08D31AE6
:1016FC003B611F4B9B687A69D31A3A699A42F8D8B6
:10170C00FB791A4A342101FB03F313442433186880
:10171C00FB79164A342101FB03F3134428331B884D
:10172C0000221946FFF796FA114B9B68FB60114B90
:10173C001B68114AA2FB03239B0C642203FB02F2DD
:10174C000C4B1B680C49A1FB03139B0C5B08D31AB5
:10175C00BB60074B9B68FA68D31ABA689A42F8D8F0
:10176C0000BF00BF2037BD4680BD00BF801E0008F3
:10177C0010E000E00400002083DE1B4380B586B03F
:10178C0000AF0346FB71FB7900211846FFF736FFCB
:10179C00FB7901211846FFF731FF00237B611FE025
:1017AC00134B9B683B61134B1B68134AA2FB03232F
:1017BC009B0C4FF47A7203FB02F20E4B1B680E4922
:1017CC00A1FB03139B0C5B08D31AFB60084B9B68B3
:1017DC003A69D31AFA689A42F8D87B6901337B616B
:1017EC007B69012BDCD900BF00BF1837BD4680BD1B
:1017FC0010E000E00400002083DE1B4380B584B0C1
:10180C0000AF0346FB710B46BB7113467B71BB7972
:10181C00012B15D17B797F33FB73FB7B1B09BB73CE
:10182C00FB7B03F00F037B73BA7BFB7911461846E5
:10183C00FFF7E4FE7A7BFB7911461846FFF7DEFED4
:10184C00BB79022B15D17B79413BFB73FB7B1B09CD
:10185C00BB73FB7B03F00F037B73BA7BFB791146E5
:10186C001846FFF7CBFE7A7BFB7911461846FFF73B
:10187C00C5FE00BF1037BD4680BD000080B58EB0E0
:10188C0000AF0346FB7100BFFEF724FF0346312B6C
:10189C00FAD9FB797C4A342101FB03F313442C3332
:1018AC001868FB79784A342101FB03F31344303375
:1018BC001B8800221946FFF7CDF9FB79724A3421B7
:1018CC0001FB03F3134424331868FB796E4A34216B
:1018DC0001FB03F3134428331B8800221946FFF73E
:1018EC00B9F9FB7900211846FFF7C2FD00237B6391
:1018FC001FE0664B9B683B61654B1B68654AA2FB0E
:10190C0003239B0C4FF47A7203FB02F2604B1B68AF
:10191C006049A1FB03139B0C5B08D31AFB605B4B68
:10192C009B683A69D31AFA689A42F8D87B6B0133F0
:10193C007B637B6B952BDCD9FB7903211846FFF776
:10194C005DFE00233B631FE0504B9B68BB61504B1B
:10195C001B68504AA2FB03239B0C4FF47A7203FBC7
:10196C0002F24B4B1B684B49A1FB03139B0C5B080E
:10197C00D31A7B61454B9B68BA69D31A7A699A4230
:10198C00F8D83B6B01333B633B6B042BDCD9FB7905
:10199C0003211846FFF732FE0023FB621FE03B4B8E
:1019AC009B683B623A4B1B683A4AA2FB03239B0C95
:1019BC004FF47A7203FB02F2354B1B683549A1FBDD
:1019CC0003139B0C5B08D31AFB61304B9B683A6A80
:1019DC00D31AFA699A42F8D8FB6A0133FB62FB6AA4
:1019EC00042BDCD9FB7903211846FFF707FE274BA4
:1019FC009B68BB62264B1B68264AA2FB03239B0CED
:101A0C00962203FB02F2224B1B682249A1FB031313
:101A1C009B0C5B08D31A7B621C4B9B68BA6AD31A6B
:101A2C007A6A9A42F8D8FB7902211846FFF7E6FD4C
:101A3C00FB7902211846FFF7E1FDFB7908211846D6
:101A4C00FFF7DCFDFB7900211846FFF7D7FDFB798A
:101A5C000C211846FFF7D2FDFB7900211846FFF741
:101A6C00CDFDFB7906211846FFF7C8FDFB79002157
:101A7C001846FFF7C3FDFB7901211846FFF7BEFDA1
:101A8C0000BF3837BD4680BD801E000810E000E066
:101A9C000400002083DE1B4380B590B000AF0346EA
:101AAC000A46FB711346BB71BB7903F00F0387F831
:101ABC003F30BB7923F00F0387F83E30FB79A44A03
:101ACC00342101FB03F313442C331868FB79A04A2F
:101ADC00342101FB03F3134430331B8801221946D4
:101AEC00FFF7B8F897F83E301B09DAB2FB791146CC
:101AFC001846FFF7BDFCFB79954A342101FB03F333
:101B0C00134424331868FB79914A342101FB03F305
:101B1C00134428331B8800221946FFF79BF88D4B82
:101B2C009B68BB638C4B1B688C4AA2FB03239A0CEF
:101B3C0013469B001A44884B1B688849A1FB03136E
:101B4C009B0C5B08D31A7B63824B9B68BA6BD31AD2
:101B5C007A6B9A42F8D8FB797D4A342101FB03F366
:101B6C00134424331868FB79794A342101FB03F3BD
:101B7C00134428331B8801221946FFF76BF8754B69
:101B8C009B683B63744B1B68744AA2FB03239A0C3F
:101B9C0013469B001A44704B1B687049A1FB03133E
:101BAC009B0C5B08D31AFB626A4B9B683A6BD31A8B
:101BBC00FA6A9A42F8D8FB79654A342101FB03F39F
:101BCC00134424331868FB79614A342101FB03F375
:101BDC00134428331B8800221946FFF73BF85D4B52
:101BEC009B68BB625C4B1B685C4AA2FB03239B0C8F
:101BFC00642203FB02F2584B1B685849A1FB0313E8
:101C0C009B0C5B08D31A7B62524B9B68BA6AD31A43
:101C1C007A6A9A42F8D897F83F20FB791146184611
:101C2C00FFF726FCFB794A4A342101FB03F31344EA
:101C3C0024331868FB79464A342101FB03F313441F
:101C4C0028331B8800221946FFF704F8414B9B6888
:101C5C003B62414B1B68414AA2FB03239A0C13467F
:101C6C009B001A443C4B1B683C49A1FB03139B0C87
:101C7C005B08D31AFB61374B9B683A6AD31AFA6933
:101C8C009A42F8D8FB79324A342101FB03F313440E
:101C9C0024331868FB792E4A342101FB03F31344D7
:101CAC0028331B8801221946FEF7D4FF294B9B6869
:101CBC00BB61294B1B68294AA2FB03239A0C1346D0
:101CCC009B001A44244B1B682449A1FB03139B0C57
:101CDC005B08D31A7B611F4B9B68BA69D31A7A696C
:101CEC009A42F8D8FB791A4A342101FB03F31344C6
:101CFC0024331868FB79164A342101FB03F313448F
:101D0C0028331B8800221946FEF7A4FF114B9B6851
:101D1C003B61114B1B68114AA2FB03239B0C6422F1
:101D2C0003FB02F20C4B1B680C49A1FB03139B0C2D
:101D3C005B08D31AFB60074B9B683A69D31AFA68A5
:101D4C009A42F8D800BF00BF4037BD4680BD00BFE7
:101D5C00801E000810E000E00400002083DE1B431E
:101D6C0080B584B000AF03463960FB710023FB6083
:101D7C000BE0FB683A6813441A78FB791146184655
:101D8C00FFF78AFEFB680133FB60FB683A6813447B
:101D9C001B78002BEDD100BF00BF1037BD4680BDB6
:101DAC0003460244934200D1704703F8011BF9E744
:101DBC0070B500260C4D0D4C641BA410A64209D125
:101DCC0000F01AF800260A4D0A4C641BA410A64217
:101DDC0005D170BD55F8043B98470136EEE755F830
:101DEC00043B98470136F2E7B41E0008B41E000805
:101DFC00B41E0008B81E0008F8B500BFF8BC08BC3B
:101E0C009E467047F8B500BFF8BC08BC9E467047AC
:101E1C0054726166666963203A204F4E20000000C0
:101E2C004C69676874203A20000000005245440059
:101E3C0059454C4C4F570000475245454E00000049
:101E4C0054726166666963203A204F464620000052
:101E5C00000000000000000001020304060708094E
:101E6C0002030405060708090A0B0C0D0E0F1010CF
:101E7C000102000000000000000C01400200000004
:101E8C00000C014004000000000C014000040000A4
:101E9C00000C014000080000000801408000000018
:081EAC00000C014001000000E0
:041EB40031010008F0
:041EB8000D01000810
:101EBC000101000000127A00100000000100000077
:04000005080005E505
:00000001FF
